:020000040800F2
:10000000900600209D0100087B1A00081D190008B9
:10001000791A000801090008C52000080000000046
:100020000000000000000000000000003B1D000870
:10003000B509000800000000391D00083D1D00083A
:10004000B7010008B7010008B7010008B7010008B0
:10005000B7010008B7010008B7010008B7010008A0
:10006000B7010008B7010008B7010008B701000890
:10007000B7010008B7010008B7010008B701000880
:10008000B7010008B7010008B7010008B701000870
:10009000B7010008B7010008B7010008B701000860
:1000A000B7010008B7010008B7010008B701000850
:1000B000B7010008B7010008B7010008B701000840
:1000C000B7010008B7010008B7010008B701000830
:1000D000B7010008B7010008B7010008B701000820
:1000E000B7010008B7010008B7010008B701000810
:1000F000B7010008B7010008B7010008B701000800
:10010000B7010008B7010008B7010008B7010008EF
:10011000B7010008B7010008B7010008B7010008DF
:10012000B7010008B701000805090008B701000879
:10013000B7010008B7010008B7010008B7010008BF
:10014000B7010008B7010008B7010008B7010008AF
:10015000B7010008B7010008B7010008B70100089F
:10016000B7010008B7010008B7010008B70100088F
:10017000B7010008B7010008B7010008000000003F
:10018000B7010008B7010008DFF80CD000F05CFAF6
:1001900000480047CD290008900600200648804707
:1001A00006480047FEE7FEE7FEE7FEE7FEE7FEE75C
:1001B000FEE7FEE7FEE7FEE7C51D0008890100082F
:1001C0002DE9F05F0546002092469B46884606468C
:1001D000814640241BE0284641464746224600F01F
:1001E0006AF853465A46C01A914110D31146184630
:1001F000224600F051F82D1A67EB01084F462246BF
:100200000120002100F048F817EB00094E41201EA4
:10021000A4F10104DFDC484631462A464346BDE8E6
:10022000F09FD2B201E000F8012B491EFBD27047CB
:100230000022F6E710B513460A4604461946FFF7B2
:10024000F0FF204610BD00F0004230F000400AD020
:10025000C10D01F56071C0F3160042EA0151C208F8
:1002600040071143704700200146704730B50B46E8
:10027000014600202022012409E021FA02F59D42D6
:1002800005D303FA02F5491B04FA02F52844151EAA
:10029000A2F10102F1DC30BD202A04DB203A00FA91
:1002A00002F1002070479140C2F1200320FA03F3CD
:1002B000194390407047202A04DB203A21FA02F0CB
:1002C0000021704721FA02F3D040C2F12002914090
:1002D0000843194670472DE9FE4F804681EA030026
:1002E000C00F0C46009021F0004123F00045B8EB10
:1002F0000200A94105D24046214690461C460B46C5
:10030000024623F00040104347D0270DC7F30A00F0
:10031000C3F30A510290401A019040286BDAC3F3EC
:10032000130040F4801B0098924620B10023D2EBCA
:10033000030A63EB0B0B01985946C0F1400250468B
:10034000FFF7AAFF06460D4650465946019A00F0AF
:100350008DF910EB08006141002487EA115284EA0C
:10036000E7731A4340D0009A62B3019A012A4FEA18
:10037000075215DC001B61EB02014FF0004202EA5C
:100380000752CDE90042001C41F5801132462B4650
:1003900000F08DF903B0BDE8F08F40462146F9E743
:1003A000001B61EB0201001C41F5801300185B414A
:1003B0002018A2F5001747EB030140EAD570B619E3
:1003C0006D4111E06D084FEA360645EAC0754FEA07
:1003D0000752001B61EB0201001C41F58011490826
:1003E0004FEA30000019514132462B4603B0BDE8B8
:1003F000F04F00F04DB90098012240000023D0EBEF
:10040000020263EBE073009821464FEAE074B8EB18
:10041000000061EB0401E9E783F000435BE781F052
:10042000004158E72DE9FE4F81EA030404F000443F
:1004300021F0004100944FF0000B23F0004350EAFC
:1004400001045ED052EA03045BD0C3F30A54C1F343
:100450000A552C44A4F2F3340194A0FB0254C1F3D6
:10046000130141F48011C3F3130343F4801301FB20
:10047000024400FB034E840A970A44EA815447EA87
:100480008357A4FB076802958D0A05FB07854FEA91
:10049000932C04FB0C542705029D4FEA065847EAAB
:1004A0001637B5EB08056EEB070C870E920E47EA80
:1004B000811742EA8312A7FB0201B6EB0B0164EB42
:1004C00000042B0D43EA0C335E1844EB1C50DA4653
:1004D0005146E7FB0201C5F313044FEA0B3343EA2D
:1004E00014534FEA0432019C43EA0603A4F10C04BE
:1004F0000294009CCDE900B400F0D9F803B0BDE847
:10050000F08F00200146F9E72DE9F04D81EA030460
:1005100004F0004B21F0004514464FF0000A23F090
:10052000004150EA050220D054EA01021DD0C5F373
:100530000A570246C5F31303C1F31300C1F30A5669
:1005400040F4801543F48013A7EB0608101BD64631
:1005500008F2FD3873EB050002D308F1010801E051
:1005600092185B41B8F1000F03DA00200146BDE8A4
:10057000F08D00204FF48011064684460EE0171BD4
:1005800073EB050705D3121B63EB050306434CEA27
:10059000010C49084FEA300092185B4150EA01070C
:1005A000EDD152EA030012D082EA040083EA050189
:1005B000084305D0101BAB4106D20122002306E000
:1005C00000224FF0004302E06FF0010253101AEBDB
:1005D00006004CEB085110EB0A0041EB0B01BDE8A3
:1005E000F04D00F055B8C1F30A52C1F3130140F2C7
:1005F000FF3341F480119A4202DA0020014670472D
:1006000040F233439A42A2F2334202DC5242FFF7F5
:1006100052BEFFF741BE000030B5041E71F1000468
:1006200004DB4FF00044404264EB0101141E73F1FF
:10063000000405DB1C464FF00043524263EB040309
:10064000994208BF904230BD064C074D06E0E06875
:1006500040F0010394E8070098471034AC42F6D309
:10066000FFF796FDB0300008D0300008202A06DBE6
:10067000CB17203A41FA02F043EAE07306E041FA70
:1006800002F3D040C2F1200291400843194670475E
:1006900010B5141E73F1000408DA401C41F100018A
:1006A00092185B411A4301D120F0010010BD2DE9E1
:1006B000F04D92469B4611B1B1FA81F202E0B0FAD8
:1006C00080F220329046FFF7E7FD04460F4640EAED
:1006D0000A0041EA0B0153465A46084313D011461B
:1006E00053EA010019D0C8F140025046FFF7E3FD7C
:1006F00005460E46504659464246FFF7CDFD084393
:1007000005D0012004E020463946BDE8F08D0020E8
:10071000054346EAE0762C4337430A986305E40A2A
:10072000A0EB08000022FD0A44EA47540A3002D533
:1007300000200146E9E7010510196941DDE9084596
:1007400000196941BDE8F04DA2E710B50146806B84
:10075000026C12F0500F05D0026CD20626D500F0C4
:10076000D3F910BD016C41F40071016401688A681D
:1007700012F0405F17D1027EAAB9CA6A12F4700F54
:1007800002D08A6852050ED44A6822F020024A60DC
:10079000016C21F480710164016CC90403D4016C03
:1007A00041F00101016400F0ADF910BD806BC26C35
:1007B000BDE810400846104710B5806B4021016429
:1007C000416C41F00401416400F09EF910BD10B588
:1007D000806B00F098F910BD464910B54A6822F4C4
:1007E00040324A604A6843681A434A6001684A686E
:1007F00022F480724A6001684A68036942EA03226F
:100800004A6001684A6822F040724A6001684A689A
:1008100083681A434A6001688A6822F400628A6029
:1008200001688A68C3681A438A60816A6FF07062DF
:10083000D14201688A6822F070628A6001688A6821
:100840000CD0836A1A438A6001688A6822F0405299
:100850008A6001688A68C36A1A4301E022F0405244
:100860008A6001688A6822F002028A6001688A68E8
:10087000037E42EA43028A6090F820100029016852
:100880004A680FD042F400624A6001684A6822F464
:1008900060424A6001684A68174C436A04EB43337C
:1008A0001A4301E022F400624A600168CA6A22F435
:1008B0007002CA620168CA6A838B104C04EB03534E
:1008C0001A43CA6201688A6822F400728A60016869
:1008D0008A6890F8303042EA43228A6001688A6868
:1008E00022F480628A6001688A68406942EA802056
:1008F000886010BD0023014000E0FFFF0000F0FF12
:10090000FEE70000014800F011BA0000F0010020ED
:1009100001681823CAB2103AB2FBF3F2054B6FF329
:100920000901032A9B5CC36500D9091D816508463E
:10093000704700009030000810B5014600208B6918
:100940008A6A4FF0C07453B1B3F5005F15D072B12D
:10095000012A0CD0022A0AD0032A09D104E01AB1D4
:10096000012A06D0022A03D1C96AC90100D5012093
:1009700010BDC96AA142FAD010BD002AF7D0012AE1
:10098000F2D0022AF3D0032AF3D010BD30B50468A8
:10099000256825F480252560046863608368402B02
:1009A000036803D099600068C26030BD9A60006837
:1009B000C16030BD7047704778B50024009490F84E
:1009C0003C20012A19D0012280F83C200A68072324
:1009D0000568092A13D9EE680A3A02EB42029340ED
:1009E0009E43EE600B788A680A3B03EB43039A4010
:1009F0000368DD682A43DA6010E0022078BD2E69C2
:100A000002EB420293409E432E610B788A6803EB0F
:100A100043039A4003681D692A431A614A681F23E9
:100A2000072A13D205686E6B521E02EB82029340B6
:100A30009E436E630B790A885B1E92B203EB8303BD
:100A40009A4003685D6B2A435A6327E005680D2AC4
:100A500012D22E6BD21F02EB820293409E432E6372
:100A60000B790A88DB1F92B203EB83039A40036879
:100A70001D6B2A431A6311E0EE6A0D3A02EB820203
:100A800093409E43EE620B790A880D3B92B203EBD2
:100A900083039A400368DD6A2A43DA62164B0568CD
:100AA000144A9D4206D10D68122D03D1556845F4B4
:100AB0008005556005689D4218D10B68102B01D048
:100AC000112B13D1536843F40003536009681029B4
:100AD0000CD10A490A4A0968B1FBF2F101EB810124
:100AE000490000E0491E00910029FBD180F83C40FC
:100AF000002078BD002301400020014014000020A8
:100B000040420F0070477047704770B504004FF0C7
:100B1000000503D0206C002610B107E0012070BD55
:100B2000204600F01DF8666484F83C60206CC00626
:100B300010D4206C20F4885040F00200206420463D
:100B4000FFF74AFE6664206C20F0020040F00100CE
:100B5000206400E0012584F83C60284670BD000058
:100B600070B586B0064614216846FFF761FB1E4942
:100B70003068884236D11D480025016841F4007173
:100B80000160006800F4007005901848143801688E
:100B900041F0010101600068694600F00100059024
:100BA000402000900320CDE90105114800F046FAED
:100BB000114C104820604FF00070C4E90105C013CB
:100BC000C4E90350800060618000A0618011C4E925
:100BD00007052046656200F079F908B1FFF7EBFEE2
:100BE000B463A66306B070BD0021014044380240E2
:100BF0000000024040640240F0010020F8B50E46BB
:100C000000210446009190F83C00012807D0012003
:100C100084F83C0020688368DB0702D011E00220E2
:100C2000F8BD836843F0010383603748374B0068A1
:100C3000B0FBF3F000EB400000E0401E0090002805
:100C4000FBD120688368DB075CD0236C40F2016530
:100C5000AB4343F4807323644068400505D5206CA2
:100C600020F4005040F480502064206CC00404D56F
:100C7000606C20F00600606400E0616484F83C1061
:100C8000A16B2448224DC863A16B23480864A16B63
:100C90002248C86421686FF022000860206841681B
:100CA00041F0806141602068816841F48071816019
:100CB0002168134632464C31A06B00F071F9686828
:100CC0001749C006206806D088421BD1816811F000
:100CD000405F13D016E08842F8D0124A904203D108
:100CE000D1F80423D206F1D00F4A90420AD1D1F8AC
:100CF000041301F01F011029E8D303E0816841F0DB
:100D0000804181600020F8BD1400002040420F00A7
:100D1000002301404B070008CF070008B90700086F
:100D20000020014000210140002201402DE9F8434C
:100D300004464FF00009CDF8009063484FF4165177
:100D4000A56D0068B0FBF1F72E6894F85C100820E0
:100D500000FA01F131420FD021680A6852070BD521
:100D60000A6822F004020A6094F85C108840A860C7
:100D7000606D40F00100606594F85C104FF0010870
:100D800008FA01F0304208D021684969090604D503
:100D9000A860606D40F00200606594F85C1004206B
:100DA0008840304208D021680968890704D5A860C6
:100DB000606D40F00400606594F85C10102088407D
:100DC000304218D021680968090714D5A860206846
:100DD0000168490304D50068000308D5A16C07E049
:100DE0000168C90503D4016821F008010160216C84
:100DF00009B12046884794F85C1020208840304292
:100E000031D021680968C9062DD5A86094F835004D
:100E100005282068016806D0490347D5006800030B
:100E20001DD4616C1CE021F016010160206841694D
:100E300021F080014161206C08B9A06C20B12068CC
:100E4000016821F00801016094F85C103F2088409F
:100E5000A86084F8349084F83580216D1FE0E16B40
:100E600009B120468847606D00282BD0606DC0070F
:100E700014D0052084F835002068016821F00101B4
:100E800001600098401C0090B84203D820680068B8
:100E9000C007F6D184F8349084F83580E16C0029DD
:100EA00010D001B02046BDE8F04308470168C905ED
:100EB000D5D4016821F01001016084F8349084F8E1
:100EC0003580CCE7BDE8F883140000202DE9F0411F
:100ED000044600F091F906465CB1002584F83450D0
:100EE000022084F835002068016821F001010160CA
:100EF0000DE00120BDE8F08100F07EF9801B05289F
:100F000005D920206065032084F83500F2E72068C9
:100F10000068C007F0D12268116820480140D4E978
:100F200001031843D4E90336334318436369184374
:100F3000A3691843E3691843236A18430843616AA5
:100F4000042903D1D4E90B13194308431060206826
:100F50004069666A20F0070130460E4301270428E5
:100F60000CD1A06A0643E06A40B12046FFF7E4FCDA
:100F700020B14020606584F83570BAE7206846618A
:100F80002046FFF7C5FC94F85C203F21914081602A
:100F9000656584F835700020ACE700003F8010F0F4
:100FA0002DE9F0410446866D90F8340000250128B3
:100FB0000DD0012084F8340094F835700020012F02
:100FC00007D084F8340002252846BDE8F0810220CD
:100FD000FBE7022784F8357060652046FFF7D6FCF2
:100FE00094F85C103F208840B0602068016841F0B0
:100FF000160101602068416941F080014161206C67
:1010000020B12068016841F0080101602068016892
:1010100041F001010160D7E770B5044600F0ECF83B
:101020000546601C02D004480078044400F0E4F84F
:10103000401BA042FAD370BD080000202DE9F84FF4
:10104000DFF87CB100224FF001084FF0030A4FF0A7
:101050000F090BF1040E00BF0B6808FA02F42340DD
:10106000A3426ED14D68022D01D0122D0ED1D508AC
:1010700000EB850CDCF820505607F70E09FA07F64E
:10108000B5430E69BE402E43CCF82060066855007B
:101090000F790AFA05FC07F0030726EA0C06AF40B1
:1010A000374307604E68012E05D0022E03D0112E63
:1010B00001D0122E0ED18668CF6826EA0C06AF400A
:1010C000374387604668A6430C79C4F30014944004
:1010D00034434460C6688C6826EA0C06AC4034434E
:1010E000C4604C68E40065D5364C256845F48045FD
:1010F0002560246822F0030504F480440094324CF7
:101100002E19D6F8084895072F0F09FA07F5AC43B2
:101110002E4DA84201D1002524E02D4DA84201D139
:1011200001251FE02B4DA84201D102251AE02A4DCE
:10113000A84201D1032515E0284DA84202D104257B
:1011400010E037E0264DA84201D105250AE0254DE3
:10115000A84201D1062505E0234DA84201D107256B
:1011600000E00825BD402543C6F80858DBF80040DC
:101170005D464E689C43F60300D51C432C60DEF8A8
:10118000004075464E689C43B60300D51C432C6056
:101190000B4D08352C684E689C43F60200D51C4365
:1011A0002C60074D0C352C684E689C43B60200D568
:1011B0001C432C60521C102AFFF44EAFBDE8F88F80
:1011C000003C014044380240003001400000024031
:1011D0000004024000080240000C024000100240DF
:1011E0000014024000180240001C02400AB1816154
:1011F00070470904FBE70000014880687047000061
:10120000080000200248816802781144816070471C
:10121000080000200B4810B5016841F4007101601E
:10122000016841F480610160016841F480710160EE
:10123000032000F06FF8002000F006F800F024F81A
:10124000002010BD003C024070B50D4D04464FF427
:101250007A712878B1FBF0F00A490968B1FBF0F027
:1012600000F0E0FA48B9102C07D200222146501EA7
:1012700000F030F800206C6070BD012070BD0000EF
:1012800008000020140000200A4808B5016841F455
:1012900080410160006800F4804000900548001F14
:1012A000016841F080510160006800F080500090BA
:1012B00008BD000044380240002809DB00F01F028E
:1012C000012191404009800000F1E020C0F80011A8
:1012D00070470000F0B40E4B1B680C46C3F30223AA
:1012E000C3F10705042D00D90425191D072901D2D2
:1012F000002300E0DB1E012606FA05F1491E21400D
:1013000099409E40761E16403143F0BC00F0F0BE7E
:101310000CED00E0064900F0070208684FF6FF03F5
:10132000184040EA0220034A10430860704700005A
:101330000CED00E00000FA052DE9F0470E4605002F
:1013400065D0DFF81481D8F80000F7B200F00F0084
:10135000B04207D288F80070D8F8000000F00F0003
:10136000B04254D128683D4C810712D5400703D5BF
:10137000206840F4E05020602878000703D52068FA
:1013800040F4604020602068A96820F0F000084325
:1013900020602878C0072DD03049686808390128B6
:1013A00012D0022813D0032811D009688907002918
:1013B0002DDA216821F0030101432160FFF71CFFB2
:1013C000814641F2883A0EE009688903EFE709682F
:1013D0008901ECE7FFF710FFA0EB0901514502D9A5
:1013E0000320BDE8F0872068696800F00C00B0EBCE
:1013F000810FEFD1D8F80010404601F00F01B14243
:1014000007D90770006800F00F00B04201D001203A
:10141000E7E72878400705D52068E96820F4E05020
:10142000084320602878000706D52068296920F441
:10143000604040EAC100206000F036F82168084AA8
:10144000C1F30311515CC840064908600020FFF752
:10145000FBFE0020C5E70000003C024008380240C7
:101460009830000814000020044805490068096805
:10147000044AC1F38221515CC84070471400002027
:1014800008380240A8300008044805490068096887
:10149000044AC1F34231515CC84070471400002037
:1014A00008380240A8300008154810B5006810F050
:1014B0000C02144813D04110042A0FD0082A0ED170
:1014C0000F4C241F2268236802F03F025B0207D5FD
:1014D0002068C0F38810A0FB010106E0084610BD9B
:1014E0002168C1F38811A1FB00010023FEF768FE0B
:1014F0002168C1F30141491C4900B0FBF1F010BD66
:10150000083802400024F4002DE9F84F050076D099
:101510002878DFF8F8B2BE4CC00749D0DBF80010DD
:101520005846C1F38101012908D00068C0F3810049
:1015300002280AD1201D0068400206D520688003D9
:1015400036D568680028E2D032E06868B0F5803FA0
:1015500010D0B0F5A02F206810D020F4803020608B
:10156000206820F4802020606868A0B1FFF744FE66
:1015700006460CE0206840F48030F4E740F4802018
:101580002060F7E7FFF738FE801B642873D82068D7
:101590008003F7D50CE0FFF72FFE064605E000BFFD
:1015A000FFF72AFE801B6428F0D820688003F7D458
:1015B0002878DFF8608280074FF000093ED5DBF81D
:1015C0000010584611F00C0F09D00068C0F38100DC
:1015D00002280BD18D48001F0068400206D4206805
:1015E000800715D5E868012809D111E0E868B8B18D
:1015F0000120C8F80000FFF7FFFD064605E002E104
:10160000FFF7FAFD801B0228C0D820688007F7D5B5
:101610002068296920F0F80040EAC10020600DE050
:10162000C8F80090FFF7E8FD064604E0FFF7E4FD88
:10163000801B02281FD820688007F7D4287800076D
:1016400022D5724E744869696C3671B1012101600E
:10165000FFF7D2FD074604E0FFF7CEFDC01B0228CE
:1016600009D830688007F7D50EE0C0F80090FFF782
:10167000C3FD074605E083E0FFF7BEFDC01B02285F
:101680007ED830688007F7D42878400768D5DFF81F
:101690007CA100270AF1380ADAF80000C0000BD458
:1016A000DAF8001041F08051CAF80010DAF80000B2
:1016B000012700F080500090584E3068C00510D4CB
:1016C000306840F480703060FFF796FD009005E0D0
:1016D000FFF792FD0099401A022851D83068C005E2
:1016E000F6D54A4EA868683601280FD0052830681C
:1016F00010D020F001003060306820F0040030602D
:10170000A868B8B1FFF778FD00900FE0306840F0AE
:101710000100F4E740F004003060F7E7FFF76CFDEC
:101720000099411A41F28830814264D830688007BC
:10173000F4D50EE0FFF760FD009007E0FFF75CFDD9
:101740000099411A41F28830814254D830688007AC
:10175000F4D42FB1DAF8001021F08051CAF800104B
:10176000A869C0B3DBF80010C1F3810102294AD097
:101770000228484607D0C8F86000FFF73DFD00E0AA
:1017800039E005463AE04746C8F86000FFF734FD07
:10179000064604E0FFF730FD801B02282BD82068A6
:1017A0008001F7D4D5E907010843A96A1C4A490812
:1017B00002EB01416A6A41EA8211084395F82C1054
:1017C00040EA01611148001F016001203866FFF7FF
:1017D00013FD054605E014E0FFF70EFD401B02284F
:1017E00009D820688001F7D50BE000BFFFF704FDA2
:1017F000401B022802D90320BDE8F88F2068800131
:10180000F4D40020F8E70120F6E700000838024091
:101810000038024000004742800E474200700040FE
:101820000000FFFF10B5401EB0F1807F01D3012002
:1018300010BD4FF0E02460610F21601700F058FCEC
:101840000020A06107202061002010BD70B50400B9
:1018500004D094F83900002510B106E0012070BDD5
:1018600084F83850204600F023F8242084F839000A
:101870002068C16821F40051C160204600F0CCFA14
:101880002068016921F4904101612068416921F0DB
:101890002A0141612068C16841F40051C160E563DB
:1018A000202084F8390084F83A00002070BD000040
:1018B00010B586B0044614216846FEF7B9FC1449F9
:1018C0002068884221D11348016841F0100101606D
:1018D000006800F0100005900E481438016841F0CF
:1018E000010101600068694600F0010005904FF4B5
:1018F000C06000900220019001200290032003901C
:10190000072004900448FFF799FB06B010BD0000C3
:10191000001001404438024000000240FEE7000091
:101920007FB500251548009501950295124903954C
:10193000016001244FF480310461C0E9011504768F
:1019400080F820500E49C0E90A15C560C46180F8CE
:1019500030404461FFF7D9F808B1FFF72CF80620B2
:101960008DE8310069460548FFF726F8002801D0C8
:10197000FFF721F87FBD000000210140A8010020F1
:101980000100000F094808B5016841F480010160B9
:101990000068002200F48000009011463A20FFF712
:1019A00099FCBDE808403A20FFF786BC3038024079
:1019B00070B586B014216846FEF73AFC1D48002435
:1019C000016841F080010160016801F0800105912A
:1019D000016841F001010160016801F00101059118
:1019E000016841F002010160016801F00201059106
:1019F000016841F00801016000680F4E00F0080026
:101A0000059000221F213046FFF7F0FB4FF4E04025
:101A100001258DE8310069460848FFF70FFB1F20BC
:101A20000090CDE90154694630460394FFF706FB68
:101A300006B070BD30380240000C02400004024085
:101A40000C4810B50A4901604FF4E13141600021B2
:101A500081600C22C160C0E904128161C161FFF79D
:101A6000F5FE002803D0BDE81040FEF7A4BF10BD6E
:101A70000010014050020020FEE7704770B50024BE
:101A800004F1B000C0B2002100F01EF900210846A8
:101A900000F01AF90021102000F016F900250121AC
:101AA000002000F011F96D1CEDB2802DF7D3641CFD
:101AB000E4B2082CE4D370BD10B500218D2000F0F5
:101AC00003F90021142000F0FFF80021BDE81040C8
:101AD000AF2000F0F9B8000010B5494C01220421F4
:101AE0002046FFF783FB6420FFF796FA00220421CB
:101AF0002046FFF77BFBC820FFF78EFA0122042166
:101B00002046FFF773FB0021AE2000F0DDF8002136
:101B1000084600F0D9F80021102000F0D5F8002187
:101B2000402000F0D1F80021812000F0CDF8002104
:101B3000CF2000F0C9F80021A12000F0C5F8002155
:101B4000C82000F0C1F80021A62000F0BDF8002157
:101B5000A82000F0B9F800213F2000F0B5F80021DE
:101B6000D32000F0B1F80021084600F0ADF80021C4
:101B7000D52000F0A9F80021802000F0A5F8002170
:101B8000D92000F0A1F80021F12000F09DF80021FB
:101B9000DA2000F099F80021122000F095F80021D9
:101BA000DB2000F091F80021402000F08DF80021AA
:101BB000202000F089F80021022000F085F80021A3
:101BC0008D2000F081F80021142000F07DF8002124
:101BD000A42000F079F80021A62000F075F800217B
:101BE000AF2000F071F80021AF2000F06DF8FFF792
:101BF00045FF0021BDE81040084600F003B8000092
:101C0000000C024010B50446B031C8B2002100F00B
:101C10005BF8102040EA1410002100F055F804F0A1
:101C20000F00BDE8104040F00100002100F04CB86A
:101C30002DE9F041203A00240D468046D7B27F2896
:101C400003D900208D1C8046EDB22946FFF7DAFF4C
:101C50000F4E00BF04EB07100121305C00F034F898
:101C6000641CE4B2082CF5D36D1CE9B24046FFF7C2
:101C7000C9FF002404EB071030440121007A00F072
:101C800023F8641CE4B2082CF4D3BDE8F081000012
:101C9000A02A00082DE9F04117460E46044600250B
:101CA0000CE031462046FFF7C3FF0834E4B2782C3D
:101CB00002D90024B61CF6B26D1CEDB27A5D002A82
:101CC000EFD1BDE8F081000070B51A4E054609B1AC
:101CD000012200E0002208213046FFF787FA0022A7
:101CE00010213046FFF782FA0024002202213046FC
:101CF000FFF77CFA280601D5012200E0002201212D
:101D00003046FFF773FA012202213046FFF76EFAE0
:101D10006806641C050EE4B2082CE6D301221021EB
:101D20003046FFF763FA3046BDE8704001220821D3
:101D3000FFF75CBA000C024070477047FFF762BAC9
:101D400030B593B030216846FEF772FA14210CA822
:101D5000FEF76EFA19480025016841F080510160D4
:101D6000006800F0805011901548016841F48041EE
:101D700001600068022400F480401190012000906E
:101D8000000401908001CDE9064008AA0420A821A2
:101D900082E813000B906846FFF7B6FB0CA90F20F2
:101DA00081E831004FF4A0500F90E002109005211F
:101DB0000CA8FFF7C1FA13B030BD00004038024054
:101DC000007000401048016841F4700101600F4844
:101DD000016841F0010101600C4A002108321160E4
:101DE00002680B4B1A400260031D0A4A1A6002681F
:101DF00022F48022026005480C3001600249580636
:101E0000803908607047000088ED00E0003802402B
:101E1000FFFFF6FE103000242DE9F0410446006873
:101E20000169E26821F44051114301612169A06810
:101E3000E26908436169114322680843D16849F2A5
:101E40000C6399430143D16020684169A26921F480
:101E5000407111434161E2696425B2F5004F974832
:101E6000974922684FF032083FD08A4201D082421F
:101E70007CD1FFF709FB00EBC00101EB00106168AA
:101E80008900B0FBF1F6FFF7FFFA00EBC00101EBB0
:101E9000001061688900B0FBF1F0B0FBF5F06FF065
:101EA0001801484306EB800108EB0110B0FBF5F088
:101EB00000F0F006FFF7E8FA00EBC00101EB0010BC
:101EC00061688900B0FBF1F0B0FBF5F006EB00169D
:101ED000FFF7DAFA00EBC00101EB0010616889003E
:101EE000B0FBF1F7FFF7D0FAD2E08A4201D082428C
:101EF0003DD1FFF7C9FA00EBC00101EB00106168AA
:101F00004900B0FBF1F0B0FBF5F00601FFF7BCFAB9
:101F100000EBC00101EB001061684900B0FBF1F774
:101F2000FFF7B2FA00EBC00101EB00106168490055
:101F3000B0FBF1F0B0FBF5F06FF01801484307EB90
:101F4000800108EBC100B0FBF5F000F0F80006EBF3
:101F50004006FFF799FA00EBC00101EB0010616841
:101F60004900B0FBF1F7FFF78FFA3CE055E0FFF7CF
:101F70007BFA00EBC00101EB001061684900B0FB87
:101F8000F1F0B0FBF5F00601FFF76EFA00EBC001CF
:101F900001EB001061684900B0FBF1F7FFF764FA4C
:101FA00000EBC00101EB001061684900B0FBF1F0EB
:101FB000B0FBF5F06FF01801484307EB800108EB28
:101FC000C100B0FBF5F000F0F80006EB4006FFF7AB
:101FD0004BFA00EBC00101EB001061684900B0FB57
:101FE000F1F7FFF741FA00EBC00101EB0010616867
:101FF0004900B0FBF1F0B0FBF5F06FF01801484379
:1020000007EB800108EBC100B0FBF5F000F0070022
:10201000216830448860BDE8F081FFF725FA00EBC5
:10202000C00101EB001061688900B0FBF1F6FFF719
:102030001BFA00EBC00101EB001061688900B0FBE6
:10204000F1F0B0FBF5F06FF01801484306EB8001AA
:1020500008EB0110B0FBF5F000F0F006FFF704FA12
:1020600000EBC00101EB001061688900B0FBF1F0EA
:10207000B0FBF5F006EB0016FFF7F6F900EBC00138
:1020800001EB001061688900B0FBF1F7FFF7ECF994
:1020900000EBC00101EB001061688900B0FBF1F0BA
:1020A000B0FBF5F06FF01801484307EB800108EB37
:1020B0000110B0FBF5F000F00F00A9E7001401409B
:1020C00000100140FEE700000FB4084B10B504A952
:1020D00002AA039800F0DEF8044602A9002000F0EE
:1020E00070FC204610BC5DF814FB0000C3290008FA
:1020F0000907090E002804DB00F1E02080F8001435
:10210000704700F00F0000F1E02080F8141D7047C8
:1021100002E008C8121F08C1002AFAD170477047B0
:10212000002001E001C1121F002AFBD1704700000E
:102130002DE9FF5FDDE90220010DDDF838B0024333
:1021400018D044F61050A1F2FF3141430D140F98FE
:10215000012820D0A5EB0B00401C5FEA000A4FF0DD
:102160000004474EDFF81C91A046504616D5CAF130
:10217000000728E00F98012443A2012808D000217D
:1021800000980F9BC0E90021C0E90243BDE8FF9F12
:102190006FEA0B01F4E7CBF10000DEE7074612E03F
:1021A000F80707D02246334640464946FEF73AF93B
:1021B000804689462246334610461946FEF732F9D4
:1021C00004460E467F10002FEAD1DDE90201BAF184
:1021D000000F42464B4602DAFEF724F901E0FEF713
:1021E00093F904460E460022284BFEF715FA03D851
:1021F0004FF0FF30014607E00022254B20463146D4
:10220000FEF769F8FEF7EFF9102409E0002C0ADB6D
:102210000A220023FDF7D4FF019B30321A55641EB9
:1022200050EA0102F2D1641C019AC4F11103144472
:102230000F9A012A03D0012208430DD10AE0084376
:1022400004D000204FF0110B0F9080E7A3EB0B059B
:102250006D1E0DE05B4504DD4FF0000205F1010548
:1022600004E003DA4FF00002A5F10105002AECD0EA
:1022700000980F99C0E90231C0E9004586E70000E7
:10228000000024400000F03F300000000000F04358
:102290000000E03F2DE9FF4F95B09B46894606467A
:1022A00000250FE2252877D100242746F84A01218E
:1022B000059400E0044316F8013F203B01FA03F0C7
:1022C0001042F7D130782A2811D06FF02F033078E0
:1022D000A0F13002092A16D8059A44F0020402EB54
:1022E000820203EB42021044761C0590EFE759F896
:1022F000042B0592002A03DA504244F4005405905E
:1023000044F00204761C30782E2816D116F8010FFE
:1023100044F004042A280DD06FF02F023078A0F189
:102320003003092B09D807EB870302EB4303C718D7
:10233000761CF3E759F8047B761C30786C280FD0B4
:1023400006DC4C2817D068280DD06A2814D104E088
:10235000742810D07A280FD10DE044F400140AE05C
:1023600044F4801401E044F440147278824202D1B3
:1023700004F58014761C761C307866280BD013DCAC
:10238000582877D009DC002875D04528F6D0462893
:10239000F4D047281AD19DE118E0632835D064288D
:1023A00079D0652812D195E1702873D008DC6728B0
:1023B000F1D069286FD06E280DD06F2806D1B5E016
:1023C00073282CD0752875D0782874D05A46179960
:1023D00090476D1C75E1C4F30250022809D0032810
:1023E0000DD0D9F8001004280DD00D6009F10409B2
:1023F00067E1D9F80010EA17C1E90052F6E7D9F809
:1024000000100D80F2E70D70F0E719F8041B8DF84D
:10241000001000208DF80100EA46012003E059F881
:1024200004AB4FF0FF3061074FF0000102D40DE024
:1024300008F101018846B9420FDA8045F8DB1AF845
:1024400008100029F4D108E008F101018846814212
:10245000FADB1AF808100029F6D105985B46A0EBC4
:10246000080721463846179A00F094FA284400EBF2
:10247000080507E04DE029E10DE01AF8010B5A4686
:1024800017999047B8F10108F7D25B4621463846C4
:10249000179A13E142E00A220092C4F302524FF06D
:1024A000000A022A08D059F804CB032A4FEAEC713B
:1024B0000AD00DE029E02AE009F1070121F0070226
:1024C000F2E802C1914609E00FFA8CFC4FEAEC7188
:1024D000042A03D14FFA8CFC4FEAEC71002907DA89
:1024E0000A460021DCF1000C61EB02012D2202E022
:1024F000220504D52B228DF80420012203E0E207F7
:1025000001D02022F7E7904659E00A2102E010228C
:102510000DE010214FF0000A00910BE010224FF067
:10252000000A44F004040827009203E008224FF058
:10253000000A0092C4F30252022A05D059F804CBD3
:102540000021032A08D009E009F1070121F0070260
:10255000F2E802C1914605E01FFA8CFC042A01D181
:102560000CF0FF0C4FF00008220728D5702806D089
:10257000009B83F0100353EA0A0305D00EE04022CB
:102580008DF80420012208E05CEA010206D0302226
:102590008DF804208DF8050002229046009B83F000
:1025A000080353EA0A030AD15CEA010201D1620777
:1025B00005D530228DF804204FF001087F1E5828E1
:1025C00004D034A003900EA802900DE036A0F9E7E5
:1025D00053466046009AFDF7F3FD84460398825CFB
:1025E0000298401E029002705CEA0100F0D102984D
:1025F00006A9081A00F1200A600702D524F48034E5
:1026000000E00127574502DDA7EB0A0000E00020AB
:1026100000EB0A01009005984144401A0590E00340
:1026200006D45B462146179A059800F0B3F9054495
:10263000002706E001A85A46C05D179990476D1C17
:102640007F1C4745F6DBE0030CD55B462146179A15
:10265000059800F09FF9054404E030205A46179988
:1026600090476D1C0099481E00900029F5DC08E099
:10267000029802995A460078491C0291179990478E
:102680006D1CBAF10001AAF1010AF1DC65E100005C
:102690000928010030313233343536373839616238
:1026A00063646566000000003031323334353637FC
:1026B00038394142434445460000000000F058F9D3
:1026C0000544761C307800287FF4ECAD19B028461C
:1026D000BDE8F08F620700D4062709F1070222F057
:1026E000070CFCE80223E14603F000485FEA080C0F
:1026F00002D00FF2702C0DE05FEA045C02D50FF2FD
:10270000682C07E05FEAC47C02D00FF2602C01E085
:10271000AFF2700C4FF0FF3823F00043CDF850C0FB
:1027200065280CD006DC452809D046281DD047284E
:102730003DD13DE0662818D067287ED138E00021E1
:10274000112F01DB112000E0781CCDE9000106A962
:102750000EA8FFF7EDFCDDE90F010E9A03910021B1
:10276000009207F1010A04914DE04FF000400097FC
:10277000CDE9011006A90EA8FFF7DAFCDDE90F028A
:1027800003920E9B11990022DDF80CA00093049295
:1027900011B9791C00EB010AB7EB0A0004D4C0F1AF
:1027A000FF3007F1010A0490AAEB0700019044E012
:1027B000012F00DA01270021112F01DD112000E097
:1027C0003846CDE9000106A90EA8FFF7B1FCDDE906
:1027D0000F010E9A0391002104910092BA4621073D
:1027E0000CD40399514500DA8A46BAF1010F05DD90
:1027F000009AAAF10101515C302908D0B84202DAEE
:1028000010F1040F06DA0121CDE9011015E0AAF15B
:102810000101E9E7002805DC049901440491AAEBD1
:10282000000102E0411C514500DD8A460499401A2E
:10283000401C01904FF000400290200704D4019802
:10284000504501DBCDF8048000208DF84F00029840
:102850000DF14F07B0F1004F25D02B200E900298BC
:102860004FF0020800280CDA404202902D200E9012
:1028700007E00A210298FDF7F9FC3031029007F8D1
:10288000011DB8F10001A8F10108F2DC029800284E
:10289000EFD1791E0E980870307800F0200040F0DB
:1028A000450007F8020D12A8C01B00F10708149894
:1028B000007800B1012000EB0A01019801EBE07102
:1028C00005984144401A401E0590E00306D45B463B
:1028D0002146179A059800F05DF805441498007891
:1028E00018B15A46179990476D1CE00324D55B46F2
:1028F0002146179A059800F04DF805441CE004980D
:10290000002807DBDDE90301884203DD0098405C15
:10291000179901E0179930205A469047049805F11D
:102920000105401C04900198401E019004D12E2006
:102930005A46179990476D1CBAF10001AAF1010A95
:10294000DDDC05E017F8010B5A46179990476D1C1E
:10295000B8F10001A8F10108F4DC5B462146179AA2
:102960000598ABE62D0000002B00000020000000C1
:102970002DE9F041044600251E461746880404D47C
:1029800005E039462020B0476D1C641EF9D5284665
:10299000BDE8F0812DE9F041044600251E46904631
:1029A000C80301D5302700E02027880404D505E0BE
:1029B00041463846B0476D1C641EF9D52846BDE82F
:1029C000F0810A68531C0B60107070478AB0FEF7E4
:1029D00021FCFFF7B5F9FEF7EBFFFEF7D3FFFEF79B
:1029E0009FFFFFF72DF8642223492448FEF706F9DC
:1029F000FFF772F8FFF760F81F4E214C00254FF4E7
:102A0000FA773846FEF708FB25702846656021787E
:102A100056F82120891CC9B2104421706429F6D3CC
:102A20006421B0FBF1F0606016A16846FFF74CFB33
:102A30006A4600210420FFF72DF994ED010ADFED2D
:102A4000140AB8EE400A20EE200ADFED120A20EE4A
:102A5000200A10EE100AFDF7F6FB41EC100B0EA158
:102A600053EC102B05A8FFF72FFB05AA0221082025
:102A7000FFF710F9C5E7000018000020A8010020AA
:102A80000000002041444320726573756C743A0065
:102A9000333353400000803925312E3366562000F1
:102AA0000000000000000000000000000000000026
:102AB000000000F8000000000000003330000000BB
:102AC00000100C06100C06000000000000000000C2
:102AD00040C07840C0784000043F04043F04040034
:102AE000007088FC08300000001820FF211E000044
:102AF000F008F000E018000000211C031E211E0059
:102B000000F00888700000001E21232419272110DE
:102B100010160E0000000000000000000000000081
:102B2000000000E018040200000000071820400028
:102B300000020418E0000000004020180700000018
:102B4000404080F0804040000202010F010202007C
:102B5000000000F0000000000101011F0101010060
:102B6000000000000000000080B0700000000000C5
:102B7000000000000000000000010101010101014E
:102B800000000000000000000030300000000000E5
:102B900000000000806018040060180601000000BA
:102BA00000E010080810E000000F102020100F00B7
:102BB000001010F8000000000020203F202000003E
:102BC0000070080808887000003028242221300096
:102BD00000300888884830000018202020110E009E
:102BE0000000C02010F8000000070424243F240047
:102BF00000F80888880808000019212020110E001C
:102C000000E0108888180000000F112020110E002D
:102C100000380808C83808000000003F0000000025
:102C20000070880808887000001C222121221C00E6
:102C300000E010080810E0000000312222110F000F
:102C4000000000C0C00000000000003030000000A4
:102C50000000008000000000000080600000000014
:102C6000000080402010080000010204081020002D
:102C70004040404040404000040404040404040078
:102C8000000810204080000000201008040201000D
:102C9000007048080808F00000000030360100000D
:102CA000C030C828E810E0000718272423140B00C0
:102CB0000000C038E0000000203C2302022738203A
:102CC00008F8888888700000203F202020110E001E
:102CD000C030080808083800071820202010080015
:102CE00008F808080810E000203F202020100F00FE
:102CF00008F88888E8081000203F202023201800CA
:102D000008F88888E8081000203F20000300000031
:102D1000C03008080838000007182020221E0200D2
:102D200008F808000008F808203F210101213F2091
:102D3000000808F8080800000020203F20200000BC
:102D400000000808F8080800C08080807F000000AC
:102D500008F888C028180800203F200126382000E5
:102D600008F8080000000000203F2020202030004C
:102D700008F8F800F8F80800203F003F003F200066
:102D800008F830C00008F808203F200007183F006E
:102D9000E01008080810E0000F10202020100F009D
:102DA00008F808080808F000203F21010101000090
:102DB000E01008080810E0000F18242438504F00D5
:102DC00008F8888888887000203F2000030C302095
:102DD00000708808080838000038202121221C00D3
:102DE000180808F8080818000000203F200000001C
:102DF00008F808000008F808001F202020201F0005
:102E00000878880000C83808000007380E01000064
:102E1000F80800F80008F800033C0700073C03002E
:102E2000081868808068180820302C03032C302094
:102E30000838C800C83808000000203F2000000003
:102E400010080808C838080020382621202018005B
:102E5000000000FE020202000000007F404040002F
:102E6000000C30C000000000000000010638C00067
:102E700000020202FE000000004040407F0000000F
:102E80000000040202020400000000000000000034
:102E90000000000000000000808080808080808032
:102EA000000202040000000000000000000000001A
:102EB00000008080808000000019242222223F2010
:102EC00008F8008080000000003F112020110E0053
:102ED0000000008080800000000E112020201100E2
:102EE000000000808088F800000E112020103F2094
:102EF0000000808080800000001F22222222130018
:102F0000008080F0888888180020203F2020000062
:102F10000000808080808000006B94949493600017
:102F200008F8008080800000203F210000203F2022
:102F300000809898000000000020203F2020000022
:102F4000000000809898000000C08080807F000012
:102F500008F8000080808000203F24022D302000EF
:102F6000000808F8000000000020203F202000009A
:102F70008080808080808000203F20003F20003FB4
:102F80008080008080800000203F210000203F20C2
:102F90000000808080800000001F202020201F0073
:102FA000808000808000000080FFA12020110E00A2
:102FB0000000008080808000000E112020A0FF8093
:102FC000808080008080800020203F212000010040
:102FD0000000808080808000003324242424190095
:102FE000008080E0808000000000001F20200000A2
:102FF0008080000000808000001F202020103F20E3
:10300000808080000080808000010E300806010072
:1030100080800080008080800F300C030C300F0017
:1030200000808000808080000020312E0E31200042
:10303000808080000080808080818E701806010072
:1030400000808080808080000021302C2221300090
:1030500000000000807C020200000000003F4040B1
:1030600000000000FF00000000000000FF00000062
:103070000002027C800000000040403F0000000091
:10308000000601010202040400000000000000002C
:1030900000061016000610160000000000000000D8
:1030A00001020304060708090000000001020304EE
:1030B000D030000800000020180000001021000897
:1030C000E8300008180000207806000020210008E1
:1030D00000000000000000000100000010000000DF
:0830E000000000000024F400D0
:040000050800018965
:00000001FF
